:020000040800F2
:10000000001D0020A5510008F10B0008F30B0008AB
:10001000F50B0008F70B0008F90B000800000000C2
:10002000000000000000000000000000FB0B0008C2
:10003000FD0B000800000000FF0B0008010C000889
:10004000BF510008BF510008BF510008BF51000850
:10005000BF510008BF510008BF510008BF51000840
:10006000BF510008BF510008BF510008BF51000830
:10007000BF510008BF510008BF510008BF51000820
:10008000BF510008BF510008BF510008BF51000810
:10009000BF510008BF510008BF510008974F00082A
:1000A000BF510008BF510008BF510008BF510008F0
:1000B000C14D00088312000829100008BF51000834
:1000C000BF510008BF510008BF510008BF510008D0
:1000D000BF5100082B510008830D00089B10000839
:1000E000694F0008BF510008BF510008BF51000808
:1000F000BF510008BF510008BF510008BF510008A0
:10010000BF510008BF510008BF510008BF5100088F
:10011000BF510008BF510008BF510008BF5100087F
:10012000BF510008BF510008BF510008BF5100086F
:1001300000F002F800F090F80AA090E8000C824469
:100140008344AAF10107DA4501D100F085F8AFF246
:10015000090EBAE80F0013F0010F18BFFB1A43F0A5
:10016000010318479CAD0000BCAD0000103A24BF4D
:1001700078C878C1FAD8520724BF30C830C144BF0C
:1001800004680C607047000000230024002500264E
:10019000103A28BF78C1FBD8520728BF30C148BFEA
:1001A0000B6070476E2907F0D081702906F07D87BB
:1001B000662909F06E86652909F06B86672909F0C2
:1001C00068866129AFF3008003681B0A28BF41F0ED
:1001D0008001692906F0F086642906F0ED8675290C
:1001E00006F0EA866F2907F0D184782906F049875E
:1001F000E92907F06D84E42907F06A84F52907F0FE
:100200006784EF2907F0CE84F82906F04887036851
:10021000DB0928BF41F08001632907F0DC837329E3
:1002200007F0E183E32907F05F85F32907F0648590
:10023000002070471FB507F0BFFC0400002000211C
:1002400008F0E6FD401C60600020002108F0CAFDB7
:10025000E0601FBD10B510BD07F0E6FD1146FFF7C9
:10026000E9FF00F027F907F00DFE03B4FFF7F2FFF6
:1002700003BC04F00DFF00002DE9F043ADF51F7D38
:100280008846074699464FF4C87102A8A69D07F014
:1002900044F8C82166A807F040F80024989499947F
:1002A0009A949B949C949D9402234FF4FA62C6A165
:1002B000C6A09E9406F05EFC002814BFC8A0CBA088
:1002C00006F008FE322004F0BFFE02234FF4FA626B
:1002D000BDA1C9A006F04EFC002814BFCDA0D2A03D
:1002E00006F0F8FD322004F0AFFE022340F6B832EB
:1002F000B5A1D0A006F03EFC002814BFD1A0D5A027
:1003000006F0E8FD322004F09FFE02234FF4FA626B
:10031000ADA1D3A006F02EFC002814BFD6A0DBA010
:1003200006F0D8FD642004F08FFE022340F6B832B8
:10033000A5A1D9A006F01EFC002814BFDAA0DFA0FA
:1003400006F0C8FD642004F07FFE4FF4C87102A8D7
:1003500006F0E3FFDCA002AE90E80E1086E80E1077
:1003600000690690DD4902A806F0CBFFDCA102A8D7
:1003700006F0C7FF022342F21072DCA102A806F0C9
:10038000F9FB002814BFDBA0DFA006F0A3FD0123CA
:1003900040F6B832DFA1E0A006F0ECFB002814BF65
:1003A000E1A0E4A006F096FD4FF4C87102A806F0A3
:1003B000B4FF284609F06EFA05460E46484609F095
:1003C00069FACDE9005602460B46DDA166A806F0A3
:1003D0008DFD8DF80840E1A102A806F092FF41468C
:1003E00002A806F08EFFE7A102A806F08AFFEDA1A1
:1003F00002A806F086FFF1A102A806F082FF3946A6
:1004000002A806F07EFF7BA102A806F07AFFEEA10B
:1004100002A806F076FF77A102A806F072FF66A890
:1004200006F050FF0246EEA198A806F05FFD98A9DD
:1004300002A806F066FF66A902A806F062FF02A9FC
:1004400001234FF47A72084606F094FB20B102A90A
:10045000E9A006F03FFD02E0E9A006F03BFD012324
:100460004FF4FA62E9A1EB4806F084FB002814BFC0
:10047000E9A0ECA006F02EFD01234FF47A72EDA165
:10048000EFA006F077FB002814BFF1A0F4A006F05F
:1004900021FD012341F27072F6A1F8A006F06AFB7B
:1004A000002814BFF9A0FDA006F014FD0DF51F7D76
:1004B000BDE8F08382B004F0E7FD04F095FD4FF451
:1004C000E13004F0EFFD4FF4E13000F0D9FC4FF4DF
:1004D000164000F038FE03F0FCFB30B1F5A006F04A
:1004E000F9FC03F0F6FB0028F8D101F022FD04F03E
:1004F000E9FC04F013FB01F057FB47214FF6FF70B6
:1005000004F014FC052001F01AFB00B3EEA006F085
:10051000E1FCF34D4FF4165000F015FE032001F0FE
:10052000ABFA4FF4164000F00EFE284601F0D7FA61
:100530000446052001F003FB002818BF002CE9D178
:10054000E8A006F0C7FC4FF4FA7004F07DFDEBA0C4
:1005500006F0C0FCDFF8B4A3EA4FEB4E0024DFF84E
:10056000B0830AF58065DFF8AC9301F030FB387892
:1005700010F0800F26D0E8A006F0ACFCE9493878EE
:100580000988800601EB902009F02EFBE64909F06E
:100590003FFBE64909F012FA8346E548834504DC4F
:1005A000584609F0CDFA04F001FB584609F072F9FB
:1005B00002460B46DFA006F08DFC4FF4FA7004F003
:1005C00043FD3C703078BFE14F4B000041542B435A
:1005D00047434C4153533D2242220D0A0000000084
:1005E000422D2D4F4B330D0A000000004552524F53
:1005F000522D2D330D0A000041542B434744434FE5
:100600004E543D312C224950222C22434D4E45540C
:10061000220D0A0049502C20434D4E45542D2D4F9C
:100620004B340D0A000000004552524F522D2D341C
:100630000D0A000041542B43474154543D310D0AEB
:100640000000000041542B43474154542D2D4F4B83
:10065000350D0A004552524F522D2D350D0A00001E
:1006600041542B434950435347503D312C22434D75
:100670004E4554220D0A000041542B434950435328
:1006800047502D2D4F4B360D0A0000004552524F5A
:10069000522D2D360D0A000041542B434950484538
:1006A00041443D310D0A000041542B434950484517
:1006B00041442D2D4F4B370D0A0000004552524F3B
:1006C000522D2D370D0A000041542B4349505354ED
:1006D0004152543D22544350222C22001400002049
:1006E000222C223830220D0A00000000434F4E4ECB
:1006F00045435400B7FECEF1C6F7C1ACBDD3B3C974
:10070000B9A60D0A000000004552524F522D2D3857
:100710000D0A00003E00000041542B434950534550
:100720004E440D0A00000000D7BCB1B8B7A2CBCD33
:100730000D0A00004552524F522D2D390D0A00006E
:100740007B226C6F63223A7B226C6F6E223A2566A5
:100750002C226C6174223A25667D7D00504F5354E3
:1007600020687474703A2F2F6170692E6865636C0D
:100770006F7564732E636F6D2F646576696365733F
:100780002F0000002F64617461706F696E74733F95
:10079000747970653D3320485454502F312E310DFB
:1007A0000A000000557365722D4167656E743A4604
:1007B0006964646C65720D0A000000006170692D47
:1007C0006B65793A00000000486F73743A61706994
:1007D0002E6865636C6F7564732E636F6D00000027
:1007E000436F6E74656E742D4C656E6774683A2540
:1007F000640D0A0D0A00000025730D0A00000000B8
:100800004552524F522D2D31300D0A00227375631F
:1008100063227D0002000020B7A2CBCDB3C9B9A6E8
:100820000D0A0000B7A2CBCD4552524F522D2D31AB
:10083000310D0A00434C4F5345204F4B0000000040
:1008400041542B434950434C4F53453D310D0A0011
:10085000B9D8B1D5C1ACBDD3B3C9B9A60D0A000092
:10086000B9D8B1D5C1ACBDD34552524F522D2D315F
:10087000320D0A0053485554204F4B0041542B432E
:100880004950534855540D0A00000000B6CFBFAA86
:10089000B7FECEF1C6F70D0A00000000B6CFBFAA22
:1008A000B7FECEF1C6F74552524F522D2D31320DC3
:1008B0000A0000006D70755F696E697420455252C0
:1008C000524F52210A000000533132313646382D42
:1008D00042442053657474696E672E2E2E0000000A
:1008E000A0860100533132313646382D4244205320
:1008F000657420446F6E6521210000004F6A624BD1
:100900000D0A0000A600002000000020DC000020EE
:100910006C0000200050C3476D6561737572650AF5
:1009200000000000A800002000002A4300401C46F0
:100930000000964364697374616E63653A256620AE
:10094000636D0D0A0000000018B1022006F066F980
:1009500034707078012802D106F060F97470B8F82C
:10096000000010F4004F3FF400AE4104490C4FF07A
:10097000000018BF584A06D0135C0AF80030401C2B
:1009800080B28142F8D85549A8F8004001F580604E
:1009900000F0D3FFD5F8860009F026F9494609F0A2
:1009A0000DF808F077FF95F88A20009202460B4672
:1009B0004BA1514806F09AFAD5F8810009F014F9D4
:1009C000494608F0FBFF08F065FF95F88520009286
:1009D00002460B4649A1484806F088FAD5F8A0001F
:1009E00009F0EAF84B4908F0E9FF08F053FF024626
:1009F0000B4649A1404806F079FAB5F8A40009F081
:100A0000F3F84A4908F0DAFF08F044FF02460B46C3
:100A100047A1394806F06AFA95F89900032806D8E4
:100A2000484951F8202048A1334806F05FFA95F86C
:100A30008C2048A1304806F059FA2878DFF830B108
:100A4000ABFB002149096FF01802514300EB810212
:100A500048A1294806F04AFA6878ABFB0021490909
:100A60006FF01802514300EB810249A1224806F0C1
:100A70003DFA04234FF4FA62AFF2B4414BA006F002
:100A800079F868B9AFF2582006F024FA04234FF43D
:100A9000FA62AFF2CC4145A006F06CF80028F1D024
:100AA000022340F6B83243A144A006F063F80028C0
:100AB00014BF45A048A006F00DFA322004F0C4FA95
:100AC0004A4A4948A2F127010090464B01F10A0029
:100AD000FFF7D2FB49E50000B8110020DC00002040
:100AE0004C6F6E6769747564653A252E35662025EE
:100AF0003163202020000000840500204C617469CF
:100B0000747564653A252E356620253163202020D2
:100B10000000000000002041416C74697475646538
:100B20003A252E31666D20202020200000007A44D6
:100B300053706565643A252E33666B6D2F682020EF
:100B40002020200004000020466978204D6F646555
:100B50003A2573004750532B42442056616C696418
:100B600020736174656C6C6974653A253032640079
:100B70001F85EB514750532056697369626C65209D
:100B8000736174656C6C6974653A25303264000079
:100B900042442056697369626C6520736174656CA8
:100BA0006C6974653A2530326400000041540D0AC6
:100BB00000000000524541445900000041542B43BD
:100BC00050494E3F0D0A000041542B4350494E3FBF
:100BD0002D2D4F4B320D0A004552524F522D2D32C2
:100BE0000D0A0000953DB7419ABFE342490000203D
:100BF0007047FEE7FEE7FEE7FEE770477047704785
:100C0000704700004D4882B0016841F00101016069
:100C100042684B4911404160016821F4102121F0E4
:100C200080710160016821F480210160416821F434
:100C3000FE0141604FF41F01816000220092019289
:100C4000016841F480310160016801F400310191D3
:100C50000099491C0091019919B90099B1F5A06F4B
:100C6000F2D1016811F4003F08BF019233D0012195
:100C7000019134490A6842F010020A600A6822F0C1
:100C800003020A600A6842F002020A604168416099
:100C900041684160416841F480614160416821F4EC
:100CA0007C114160416841F4E8114160016841F004
:100CB00080710160016811F0007FFBD0416821F074
:100CC00003014160416841F002014160416801F067
:100CD0000C010829FAD11C494FF00060086002B0ED
:100CE0007047164B5868194A194910F00C0018BF84
:100CF000042801D0082801D00A6015E058685A6815
:100D000000F470104FF0020C12F4803F0CEB904096
:100D100003D05A6812F4003F03D00E4A50430860D3
:100D200002E00A4A5043086058680B4AC0F30310B7
:100D3000105C0A6822FA00F0086070470010024058
:100D40000000FFF80020024008ED00E000127A00E9
:100D50005400002000093D0058000020010010B59B
:100D6000BD484FF0000108D0044605F0E9FC2046DC
:100D7000BDE81040012105F0CABABDE8104005F0F9
:100D8000C6BA70B5B54C40F22551204604F06EFE4F
:100D9000002808BF70BD204604F007FEB04DC4B265
:100DA0002888B0F5806F28BF70BD0021AA4E30465C
:100DB00005F0C6FC698839B90021304605F0C0FC51
:100DC0000121304605F0A3FAA64928880C54401C9E
:100DD000288070BD10B54FF48061A24806F09DFADE
:100DE0009F490020088010BD30B50D46044685B0EF
:100DF0000121042004F077FCADF804400020ADF898
:100E00000050954CADF80600ADF80200694620464A
:100E100004F0A9FF01221146204605F08CFA1E209D
:100E20008DF80C0001208DF80D0002218DF80E10B8
:100E30008DF80F0003A804F04AFE05B030BD70B570
:100E40000C46064601218CB01546084604F039FCD4
:100E5000304605F0EDFC00211020CDE90201802094
:100E6000CDE904104001CDE9081006910A910791DF
:100E700069463046CDE9004505F041FD0CB070BD36
:100E80002DE9F043044691B00121042004F022FC36
:100E90000121480404F027FC704F384604F06AFC36
:100EA0000425ADF82C5003268DF82E601820DFF8AD
:100EB000B8818DF82F000BA9404604F0FEF90820F8
:100EC000ADF82C008DF82F500BA9404604F0F5F931
:100ED0000C940024ADF838400C20ADF83440ADF847
:100EE0003A00ADF83640ADF83C400CA9384604F065
:100EF0008BFC01228021384604F021FD0121DFF81E
:100F00006C9107F104085A4D084604F0DAFB484694
:100F100005F08EFC1020CDE902048020CDE90440CC
:100F200040010694CDE908400A94CDE90085079474
:100F30006946484605F0E3FC0121384604F0DEFC32
:100F4000012240F22551384604F0E1FC26208DF8BC
:100F5000400002278DF841708DF842604FF0010883
:100F60008DF8438010A804F0B2FD632641F61F45BA
:100F70000121042004F0B7FBADF80050364DADF868
:100F80000460ADF80640ADF802406946284604F01A
:100F9000EAFE01221146284605F0CDF91E208DF803
:100FA0000C008DF80D808DF80E708DF80F8003A861
:100FB00004F08DFD2A4800214480284605F0A7F959
:100FC00011B0BDE8F08370B50C460546002105F070
:100FD000CCFC2146284605F0DAFC2846BDE87040E6
:100FE000012105F0C2BC0FB4214870B505AA0499CF
:100FF00005F05EFF1D4C204605F0CBFC0028FAD121
:1010000025461B4806F05EF984B20021284605F00B
:10101000ACFC2146284605F0BAFC0121284605F023
:10102000A4FC70BC5DF814FB10B50B4C01212046EC
:1010300005F0B2FB002808BF10BD0948418841F403
:10104000004141800121204605F0B1FB2046BDE86A
:101050001040002105F05BB900080040004400404A
:1010600068000020B809002000080140800002400C
:10107000B8050020010010B58E484FF0000108D0DF
:10108000044605F05DFB2046BDE81040012105F057
:101090003EB9BDE8104005F03AB970B5864C40F253
:1010A0002551204604F0E2FC002808BF70BD204610
:1010B00004F07BFC814DC4B22888B0F5806F28BF56
:1010C00040F4004012D27B4E0021304605F038FB40
:1010D000298839B90021304605F032FB012130461C
:1010E00005F015F9764928880C54401C288070BDFD
:1010F00030B50D46044685B00121022004F0F3FA14
:10110000ADF804400020ADF800506A4CADF8060080
:10111000ADF802006946204604F025FE0122114682
:10112000204605F008F91D208DF80C0001208DF8EF
:101130000D0002218DF80E108DF80F0003A804F0A9
:10114000C6FC05B030BDF0B504468BB001210820C7
:1011500004F0C0FA0121880404F0C5FA564D28466F
:1011600004F008FB2815ADF8100003268DF8126076
:101170001820544F8DF8130004A9384604F09DF848
:10118000E814ADF8100004208DF8130004A93846C7
:1011900004F093F800940024ADF808400C20ADF85A
:1011A0000440ADF80A00ADF80640ADF80C406946C1
:1011B000284604F029FB01228021284604F0BFFBC9
:1011C000414A291D4148FFF73AFE0121284604F013
:1011D00095FB012240F22551284604F098FB272078
:1011E0008DF8200001258DF821508DF822608DF8B2
:1011F000235008A804F06BFC632741F61F46012129
:10120000022004F070FAADF814602A4EADF81870A0
:10121000ADF81A40ADF8164005A9304604F0A3FD1C
:1012200001221146304605F086F81D218DF8241064
:101230008DF8255002218DF826108DF8275009A829
:1012400004F045FC1D4800210480304605F05FF89D
:101250000BB0F0BD0FB41C4810B503AA029905F0FD
:1012600027FE1A4C204605F094FB0028FAD11648B8
:1012700006F028F881B22046FFF7A5FE10BC5DF805
:1012800014FB10B50B4C0121204605F085FA00280F
:1012900008BF10BD0948018841F4004101800121C7
:1012A000204605F084FA2046BDE81040002105F0F4
:1012B0002EB8000000040040004800406C000020F0
:1012C000B8110020000C0140B80D00201C000240A5
:1012D000034679B102782A2A03D0202A01D37A2A38
:1012E00001D9FF2070472C2A04BF491EC9B2401CF7
:1012F0000029EFD1C01AC0B27047034601204A1E30
:10130000D2B238BF70475843521ED2B2FBD2704798
:101310002DE9F0470027894602463E463C463946BD
:10132000BC4613782D2B04BF4CF0020C521C1378D2
:101330002C2B18BF2A2B0AD02E2B04BF4CF0010CEB
:10134000521C56D0303B0A2B53D3002421461CF0AC
:10135000020F18BF401C4FF00008002C19D9A4EB55
:101360000802521ED2B20125531E4FF00A0ADBB208
:1013700004D35B1E05FB0AF5DBB2FAD210F8082095
:10138000303A05FB027708F1010202F0FF08A045A0
:10139000E5D3052988BF052189F800104FF0000822
:1013A00000291BD9A1EB0802521ED2B20125531EFF
:1013B0004FF00A09DBB204D35B1E05FB09F5DBB273
:1013C000FAD204EB080202445278303A05FB026676
:1013D00008F1010202F0FF088845E3D30A20FFF775
:1013E0008CFF07FB00601CF0020F18BF4042BDE8F5
:1013F000F0871CF0010F19BF491CC9B2631CDCB295
:10140000521C8EE72DE9F84F0C4681460027FEA1BD
:10141000204605F019FF8446C0790321303800F0DA
:10142000FF0A6046FFF754FFFF2805D06044694675
:10143000FFF76EFF89F800004FF00008BAF1000FC7
:101440008CBF4FF0040BBDE8F88FEFA1204605F0EC
:10145000FBFE054600240BEB8400C1B22846FFF7D3
:1014600037FFFF2838D028446946FFF751FF07EBC4
:10147000870101EB0906B070052000EB8400C1B2C2
:101480002846FFF725FFFF2826D028446946FFF7A6
:101490003FFFF070062000EB8400C1B22846FFF742
:1014A00017FFFF2818D028446946FFF731FFB080A6
:1014B000072000EB8400C1B22846FFF709FFFF2890
:1014C0000AD028446946FFF723FFB071781CC7B2E1
:1014D000601CC4B2042CBED308F101006C1C00F0E7
:1014E000FF08D045B1D3BDE8F88F2DE9F84F0C4681
:1014F00081460027C6A1204605F0A6FE8446C07995
:101500000321303800F0FF0A6046FFF7E1FEFF28B4
:1015100005D060446946FFF7FBFE89F801004FF0F3
:101520000008BAF1000F8CBF4FF0040BBDE8F88F34
:10153000B7A1204605F088FE054600240BEB840089
:10154000C1B22846FFF7C4FEFF283CD028446946B4
:10155000FFF7DEFE07EB870101EB090686F83E0088
:10156000052000EB8400C1B22846FFF7B1FEFF283A
:1015700029D028446946FFF7CBFE86F83F000620B5
:1015800000EB8400C1B22846FFF7A2FEFF281AD064
:1015900028446946FFF7BCFEA6F84000072000EB90
:1015A0008400C1B22846FFF793FEFF280BD02844E1
:1015B0006946FFF7ADFE86F84200781CC7B2601C92
:1015C000C4B2042CBAD308F101006C1C00F0FF086F
:1015D000D045ADD3BDE8F88F38B50A4604468EA194
:1015E000104605F031FE05460621FFF771FEFF2883
:1015F00005D028446946FFF78BFE84F88B0007214D
:101600002846FFF765FEFF2805D028446946FFF706
:101610007FFE84F88C0009212846FFF759FEFF2839
:1016200008BF38BD28446946FFF772FEC4F8A00021
:1016300038BDF8B50A46054679A1104605F004FE06
:1016400006460221FFF744FEFF2805D030446946D4
:10165000FFF75EFE85F899000024E01CC1B2304619
:10166000FFF736FEFF280AD030446946FFF750FEE8
:10167000291981F88D00601CC4B20C2CEDD30F2108
:101680003046FFF725FEFF2805D030446946FFF7B6
:101690003FFEA5F89A0010213046FFF719FEFF28FB
:1016A00005D030446946FFF733FEA5F89C001121B0
:1016B0003046FFF70DFEFF2808BFF8BD30446946ED
:1016C000FFF726FEA5F89E00F8BD2DE9F8430A466F
:1016D000044655A1104605F0B7FD05460121FFF768
:1016E000F7FD534E42F21077FF2821D02844694677
:1016F000FFF70EFE84469DF800100A20FFF7FDFD5F
:10170000BCFBF0F0B0FBF7F184F87E10A6FB0021E3
:101710004909A6FB013252096FF018035A4301EB45
:101720008202594384F87F2000EB810084F8800016
:1017300003212846FFF7CCFDDFF8F880FF283FD0D3
:1017400028446946FFF7E4FD84469DF80000801CAC
:10175000C1B20A20FFF7D1FDBCFBF0F0C4F8810054
:101760009DF80000801CC1B20A20FFF7C6FD0146AB
:10177000BCFBF1F200FB12C008F036FA81469DF87E
:101780000000C0F10500C1B20A20FFF7B6FD08F065
:101790002BFA494608F03CFA414608F00FF9814619
:1017A00005210A20FFF7A9FDD4F88110484308F06D
:1017B0001BFA494608F09AF808F0DEF9C4F88100EF
:1017C00004212846FFF784FDFF281CBF285C84F80D
:1017D000850005212846FFF77BFDFF2858D02844C7
:1017E0006946FFF795FD84469DF80000801CC1B254
:1017F0000A20FFF782FDBCFBF0F0C4F886009DF8DC
:101800000000801CC1B217E0244750475356000027
:10181000244244475356000024474E4747410000A6
:1018200024474E475341000024474E524D43000089
:101830001F85EB51000070420A20FFF75EFD014654
:10184000BCFBF1F200FB12C008F0CEF981469DF816
:101850000000C0F10500C1B20A20FFF74EFD08F0FC
:10186000C3F9494608F0D4F9414608F0A7F8804684
:1018700005210A20FFF741FDD4F88610484308F0FF
:10188000B3F9414608F032F808F076F9C4F886005A
:1018900006212846FFF71CFDFF281CBF285C84F8A2
:1018A0008A0009212846FFF713FDFF2808BFBDE87D
:1018B000F88328446946FFF72BFD0146B0FBF7F09B
:1018C00084F87D00A6FB01204009A6FB00325209E6
:1018D0006FF018035A4300EB8202584301EB80007B
:1018E00084F87C2000F5FA60A4F87A00BDE8F8835B
:1018F00038B50A460446A5A1104605F0A5FC844665
:101900000721FFF7E5FCFF2808BF38BD60446946A2
:10191000FFF7FEFCA4F8A4009DF80000032828BFF0
:1019200038BDC0F10300C1B20A20FFF7E6FCB4F8ED
:10193000A4104843A4F8A40038BDF8B50E460446E8
:10194000FFF760FD31462046FFF7CFFDAFF23811BB
:10195000304605F079FC05460621FFF7B9FCFF2863
:1019600005D028446946FFF7D3FC84F88B00072193
:101970002846FFF7ADFCFF2805D028446946FFF74D
:10198000C7FC84F88C0009212846FFF7A1FCFF283A
:1019900005D028446946FFF7BBFCC4F8A0003146D7
:1019A0002046FFF746FE31462046FFF78EFE77A120
:1019B000304605F049FC84460721FFF789FCFF28E3
:1019C00008BFF8BD60446946FFF7A2FCA4F8A40074
:1019D0009DF80000032828BFF8BDC0F10300C1B284
:1019E0000A20FFF78AFCB4F8A4104843A4F8A40026
:1019F000F8BD70B500242546664E04E0601C84B234
:101A0000052003F021FB308810F4004F16D0642C21
:101A100016D230884FF0000143045B0C18BF5E48BB
:101A200008D0425C832A05D0842A0ED0491C89B292
:101A30009942F6D3994208BF022502E0642CDDD317
:101A4000012500203080284670BD0325F2E70022E2
:101A5000002986BF514B03F1040C704710B41C8859
:101A600014F0400FFBD0845CACF80040521C92B2E2
:101A70009142F4D810BC704770B5494905464AF206
:101A8000A01008804FF48060488005200871002075
:101A9000487101208D71C87185F004000872DFF86B
:101AA000FCC040F60D200B23A1F8090000220CF128
:101AB0000404BCF8000010F0400FFAD0885C2080CD
:101AC000501C82B29342F4D8C82003F0BDFA3548C6
:101AD00050F82500FFF737FBBDE8704089E7304933
:101AE00030B44AF2A0120A804FF4E0624A806522C4
:101AF0000A71012200BA4A71C1F806008A72020C0A
:101B000082EA106282F0640282EA1022504080F081
:101B10000100C87240F60D20204B88810E22002063
:101B200003F1040C1C8814F0400FFBD00C5CACF8E3
:101B30000040401C80B28242F4D830BC59E71849BA
:101B400030B44AF2A0120A804FF440724A800E224A
:101B50000A714871012088714879104B80F00F009C
:101B6000C87140F60D2008810A22002003F1040C00
:101B70001C8814F0400FFBD00C5CACF80040401CFB
:101B800080B28242F4D830BC33E7000024474E567E
:101B9000544700006C000020B811002000480040AD
:101BA000B80D0020D49F000808B50121102003F0D3
:101BB00091FD0220ADF8000010208DF803000320F5
:101BC0008DF802006946084803F077FB08BD10B5A0
:101BD000064C0120C4F88401142004F5C27403F0FB
:101BE0001AFA0020206010BD0010014000002242BF
:101BF00070B50C46054600F0F0F9D02000F0A0FAD0
:101C000000F024FA50B9284600F09AFA00F01EFAC3
:101C1000204600F095FA00F019FA18B100F0F9F931
:101C2000012070BD00F0F5F9002070BDBC2828BF70
:101C300001210FD2622828BF02210BD22A2828BFF7
:101C4000032107D2142828BF042103D20A282CBF5D
:101C5000052106211A20CBE710B50446B0F57A7F9E
:101C600088BF4FF47A7402D8042C38BF04244FF490
:101C70007A70B0FBF4F0401EC1B21920FFF7B8FF34
:101C80006008BC2828BF01210FD2622828BF02218A
:101C90000BD22A2828BF032107D2142828BF0421E9
:101CA00003D20A282CBF052106211A20BDE81040C6
:101CB0009EE710B5044600F090F9D02000F040FAFD
:101CC00000F0C4F9204600F03BFA00F0BFF900F044
:101CD00084F9D12000F034FA00F0B8F9002000F0C7
:101CE00057FA044600F095F9204610BDC006010ED3
:101CF0001C207DE7C006010E1B2079E710B500F01F
:101D000052F980216B20FFF773FF642003F09CF9E8
:101D100000216B20FFF76CFF18211B20FFF768FFE5
:101D200000211C20FFF764FF3220FFF795FF002100
:101D30003820FFF75DFF00216A20FFF759FF0021DF
:101D40002320FFF755FF80213720FFF751FF75242F
:101D500000F043F9D02000F0F3F900F077F92046C5
:101D600000F0EEF900F072F900F037F9D12000F040
:101D7000E7F900F06BF9002000F00AFA044600F0E1
:101D800048F9682C1CBF012010BD01216B20FFF712
:101D90002FFF00216C20FFF72BFF3220FFF75CFFA5
:101DA000002010BD2DE9F0411D4614460F460646A1
:101DB00000F013F97006000E00F0C2F900F046F9C9
:101DC00020B100F026F90120BDE8F081384600F08E
:101DD000B7F900F03BF900F000F9012040EA4600B5
:101DE000C0B200F0ADF900F031F95CB1012C0ED0B9
:101DF000012000F0CDF92870601E10F0FF0405F1FD
:101E00000105F3D100F005F90020BDE8F0810020C4
:101E100000F0BEF92870EFE708B56B4602224121B9
:101E20006820FFF7BFFFBDF8000040BA00B207F01E
:101E30003FFA0022564B07F0E3F8564A564B07F09C
:101E40002FF806F0FBFF554907F0E2FE07F078FE99
:101E500000B208BD70B582B015460E4604466B460A
:101E6000062243216820FFF79DFF00281CBF02B017
:101E700070BDBDF800104BBA2380BDF802104BBAFC
:101E80003380BDF8041049BA298002B070BD70B526
:101E900082B015460E4604466B4606223B2168205A
:101EA000FFF780FF00281CBF02B070BDBDF8001016
:101EB0004BBA2380BDF802104BBA3380BDF8041032
:101EC00049BA298002B070BD2DE9F0411D46164681
:101ED0000F46044600F081F86006000E00F030F96D
:101EE00000F0B4F868B9384600F02AF900F0AEF80E
:101EF0000024002E0ED9285D00F022F900F0A6F88B
:101F000020B100F086F80120BDE8F081601CC4B269
:101F1000B442F0D300F07DF80020BDE8F08110B5A8
:101F200043211F20FFF764FE0421BDE8104020205C
:101F30005EE610B543211F20FFF75AFE0421202042
:101F4000FFF756FE04211A20FFF752FE1C21084617
:101F5000FFF74EFE1C213720FFF74AFE4021BDE867
:101F60001040382044E610B530211D20FFF740FE18
:101F70000121BDE810401E203AE610B55021212075
:101F8000FFF736FE1221BDE81040222030E60000A7
:101F900000407540A4703D0AD74342400000C8424B
:101FA000022003F038B838B50121102003F092FB6D
:101FB0004FF4C050ADF8000010208DF8030003204E
:101FC000A04C8DF802006946204603F076F94FF4E4
:101FD000C051204603F0EDF938BD70B5994841680D
:101FE00021F470414160416841F440514160964C98
:101FF0000120C4F8AC01C4F8B001022004F5D67485
:1020000003F009F800252560022003F004F865605C
:1020100070BD8C4810B5416821F470414160416841
:1020200041F440514160884C0020C4F8B001C4F82C
:10203000AC01022004F5D67402F0EDFF01206060CF
:102040002060BDE81040022002F0E5BF2DE9F0411C
:102050007C4E0024706820F470407060706840F41A
:1020600000407060784D0127C5F8AC71022002F085
:10207000D2FFC5F8B071022002F0CDFFD5F82C01D7
:10208000002100B3601CC4B2FA2C18D9706820F487
:1020900070407060706840F440507060C5F8B011D6
:1020A000C5F8AC11022002F0B6FFC5F8B071C5F852
:1020B000AC71022002F0AFFF0120BDE8F081D5F83D
:1020C0002C010028DED1C5F8B0110020BDE8F08158
:1020D00070B55D4C0025C4F8B0515A48416821F4F0
:1020E00070414160416841F440514160C4F8AC51D5
:1020F000022004F5D67402F08EFF012060600220F9
:1021000002F089FF656070BD70B54F4C0025C4F8C2
:10211000B0514C48416821F470414160416841F43C
:10212000405141600126C4F8AC61022004F5D67428
:1021300002F071FF6660022002F06DFF656070BD05
:102140002DE9F04105463F48416821F47041416066
:10215000416841F4405141603B4F4FF00008C7F8DF
:10216000B08144460126E809C7F8AC016806050EAF
:10217000C7F8B061022002F04EFFC7F8B08102201C
:1021800002F049FF601CC4B2082CECD3BDE8F0811A
:102190002DE9F047DFF8AC9082460024D9F804001E
:1021A00020F47040C9F80400D9F8040040F400405D
:1021B000C9F80400244F254626464FF00108C7F809
:1021C000B061022002F027FFC7F8B0816006040E5C
:1021D000D7F82C0100281CBF601CC4B2022002F0FA
:1021E0001AFF681CC5B2082DE9D3BAF1000FC7F871
:1021F000B061D9F8040020F47040C9F80400D9F89F
:10220000040040F44050C9F804000ED0C7F8AC6197
:10221000022002F000FFC7F8B081022002F0FBFEAE
:10222000C7F8B0612046BDE8F087C7F8AC8102204E
:1022300002F0F1FEC7F8B081022002F0ECFEC7F810
:10224000B061EFE7001001400000224238B5FB4CBE
:102250000023224694F824C0D2E90012BCF1000FFA
:102260000ED000280EBF8DF8003002208DF800003F
:10227000C97B10786B460122FFF726FEC0B91AE031
:1022800094F80AC0BCF1000F12D0002808BF8DF8E6
:10229000003006D0607C002804BF01208DF80000CB
:1022A0000CD11078C97B6B460122FFF70DFE10B1EF
:1022B0004FF0FF3038BD9DF800006074002038BD3D
:1022C00038B5DE4D00246868007900281DD92868DB
:1022D000C17AA1421CBF407DA04210D068686B4605
:1022E000012200782146FFF75DFD10B14FF0FF306D
:1022F00038BD9DF800202146D1A004F0EBFD601C04
:10230000C4B268680079A042E1D8002038BDCB4A49
:102310000B46116891F80BC084451CBF497D814272
:1023200003D051680A79824202D84FF0FF307047DB
:1023300091F800C0014601226046FFF733BD38B571
:10234000BE4D044695F82300A04204BF002038BDCE
:10235000002C14BF302000208DF80000A87C28B18C
:102360009DF8000040F002008DF8000095F8220072
:1023700028B19DF8000040F080008DF8000028682A
:102380006B460122017D68680078FFF79DFD0028FB
:1023900012BF4FF0FF3085F82340002038BD10F009
:1023A000700FF8B504464FF0000618BF01200DD09D
:1023B0008DF80000A14D6B4601222868817C686879
:1023C0000078FFF781FD002838D106E0002C14BF0B
:1023D0008DF800604020EDD1EAE79DF8000014F090
:1023E000400F20F0400028738DF8006004BF0420E7
:1023F0008DF8000014F0200F05D19DF8000040F08A
:1024000002008DF8000014F0100F05D19DF80000B7
:1024100040F001008DF8000014F0080F05D19DF880
:10242000000040F038008DF8000028686B4601225B
:10243000C17C68680078FFF747FD18B1AE724FF0B5
:10244000FF30F8BD002C1EBF082C0020FFF777FFDF
:10245000AC722E75322002F0F7FD0020F8BD38B5C1
:10246000764D0446A87CA04204BF002038BD7348C6
:10247000002C6B46D0E900104FF00102097900787A
:1024800034D0FFF78FFC002864D19DF800006B4624
:1024900020F020008DF8000028680122017968688A
:1024A0000078FFF711FD002854D1032002F0CCFD85
:1024B00002208DF8000095F8220000281CBF822021
:1024C0008DF8000095F8230028B19DF8000040F039
:1024D00030008DF8000028686B460122017D686895
:1024E0000078FFF7F1FC002834D136E0FFF75AFC02
:1024F00080BBA87A10F0010F9DF8000014BF40F0D7
:10250000200020F020008DF8000028686B46012292
:10251000017968680078FFF7D7FCD8B9032002F08A
:1025200093FD95F82200002818BF80208DF8000048
:1025300095F8230028B19DF8000040F030008DF898
:10254000000028686B460122017D68680078FFF76B
:10255000BBFC10B14FF0FF3038BDAC74002038BD6B
:1025600038B5364DA87A002800F0B58000248DF8E3
:10257000004028686B460122C17B68680078FFF73D
:10258000A3FC00287ED128686B4601224179686847
:102590000078FFF799FC002874D128686B46012267
:1025A000017968680078FFF78FFC00286AD195F8F8
:1025B000240000284CD00C208DF8000028686B46C1
:1025C0000122017968680078FFF77EFC002859D164
:1025D000322002F039FDC0208DF80000A87A10F0FA
:1025E000010F1CBFE0208DF8000028686B46012217
:1025F000017968680078FFF767FC00286BD1687C78
:1026000000281ABF02208DF800008DF800402868CD
:102610006B460122C17B68680078FFF755FC0028F3
:1026200059D18DF8004028686B46012241796868CD
:102630000078FFF749FC00284DD14FE070000020E2
:10264000252335783A20252335780D0A000000002F
:1026500004208DF8000028686B4601220179686823
:102660000078FFF731FC002835D1A87C98B9A87A0A
:1026700010F0010F18BF60200DD08DF80000286801
:10268000017900E027E068686B4601220078FFF7D7
:102690001BFC00BB01E04020EFE7322002F0D4FC3D
:1026A000687C00281ABF01208DF800008DF80040DA
:1026B00028686B460122C17B68680078FFF704FC3C
:1026C00048B9286805F1100301224179686800784B
:1026D000FFF7FAFB10B14FF0FF3038BD002038BDD6
:1026E0002DE9F041FF4F20F00104002597F8240068
:1026F00000281CBF0020BDE8F081B97A002904BF82
:102700004FF0FF30BDE8F0813E7C21403974A1429A
:1027100018BF4FF0FF35002C04BF387D00280DD0C6
:102720000120FFF793FD64B1FFF71AFF00281CBFDB
:102730003E744FF0FF3004D0BDE8F0810020FFF779
:1027400085FD2846BDE8F08138B5E64CA17A002920
:1027500024D0BC2828BF01200FD2622828BF022025
:102760000BD22A2828BF032007D2142828BF042010
:1027700003D20A282CBF052006208DF80000E17A3C
:10278000C0B2814204BF002038BD20686B460122E0
:10279000817860680078FFF797FB10B14FF0FF3049
:1027A00038BD9DF80000E072002038BD282884BFA5
:1027B0004FF0FF3070472DE9F843CA4D04004FF049
:1027C00007084FF0000610D00120FFF7B8FD2020C9
:1027D00001278DF80000012C1BD0052C31D88DF875
:1027E00001700520FFF7B0FF18E00020FFF7A7FDFC
:1027F0008DF800608DF8018028686B460222817C8C
:1028000068680078FFF760FB002808BF2E7514D1B8
:102810002AE08DF801600520FFF796FF9DF8010082
:102820006B4648EA80108DF8010028680222817CFE
:1028300068680078FFF748FB78B14FF0FF30BDE8DB
:10284000F883142C94BF022003208DF8010094BF5C
:102850000A201420FFF778FFE0E70820A8722E7303
:102860002F750020FFF73CFF0020BDE8F883F8B586
:102870009C4D0446A87A38B395F8240020BB287DE7
:1028800048B12CB1282C03D8E0B2FFF78FFF27E026
:102890000020FFF78BFF042C38BF042404D3B4F5C9
:1028A0007A7F88BF4FF47A744FF47A76B6FBF4F0EF
:1028B000401E8DF8000028686B4601224178686848
:1028C0000078FFF701FB10B14FF0FF30F8BD9DF825
:1028D0000000401CB6FBF0F0E8814008FFF734FF31
:1028E0000020F8BD38B57F4CA17A11B3022808BF8B
:1028F00000200BD0042808BF082007D0082808BFF4
:10290000102003D0102808BF182012D18DF8000025
:10291000607A9DF80010B0EBD10F04BF002038BDE5
:1029200020686B460122C17960680078FFF7CCFA15
:1029300010B14FF0FF3038BD9DF80000C008607244
:10294000002038BD38B5674CA17A29B3FA2808BFF2
:1029500000200ED0B0F5FA7F08BF082009D0B0F5EE
:102960007A7F08BF102004D0B0F5FA6F08BF182096
:1029700012D18DF80000207A9DF80010B0EBD10F35
:1029800004BF002038BD20686B4601228179606851
:102990000078FFF799FA10B14FF0FF3038BD9DF87D
:1029A0000000C0082072002038BD70B582B04D4CC8
:1029B00080208DF8000020686B460122817C6068D1
:1029C0000078FFF781FA00286BD1642002F03CFB0D
:1029D00000258DF8005020686B460122817C6068DC
:1029E0000078FFF771FA00285BD120686B46062259
:1029F000817D60680078FFF7D5F9002851D19DF8F6
:102A000005009DF80310C007400F01F0010140EAE6
:102A100041009DF801104FF0010601F00101014352
:102A200009D0012908BFE67416D0022913D02EA0C0
:102A300004F050FA35E020686B460122C1786068E6
:102A40000078FFF7AFF960BB9DF8000010F00F00B1
:102A500024D0042829D0E574FF20A072207260726F
:102A6000E0724FF6FF71E1812074A074267384F840
:102A7000226084F8235065752575C4F81650C4F893
:102A80001A50C4F81E5084F8245084F82550E58468
:102A90004FF4FA60FFF756FF18B90BE01C4804F03A
:102AA00019FA02B04FF0FF3070BD1AA004F012FA0C
:102AB000E674D1E70220FFF715FF0028F1D12A20A4
:102AC000FFF742FE0028ECD13220FFF7D0FE0028AD
:102AD000E7D1FFF705FE0028E3D1FFF7C0FC00288F
:102AE000DFD127E070000020556E737570706F7233
:102AF00074656420736F6674776172652070726F9D
:102B000064756374207265762025642E0A000000C7
:102B100084AE000848616C662073656E73697469E1
:102B200076697479207061727420666F756E642E98
:102B30000A000000FFF733FC02B0002070BD7047B0
:102B400010B50446FE4882B0817A11F0700F08D0AB
:102B5000016840686B46097B00780622FFF722F97E
:102B600018B102B04FF0FF3010BDBDF8000040BA00
:102B70002080BDF8020040BA6080BDF8040040BA71
:102B8000A08002B0002010BD10B50446EC4882B011
:102B9000817A11F0080F08D0016840686B46497BC4
:102BA00000780622FFF7FEF818B102B04FF0FF30B0
:102BB00010BDBDF8000040BA2080BDF8020040BA48
:102BC0006080BDF8040040BAA08002B0002010BDB3
:102BD000F8B5DB4C0546A07A40B120686B4602226E
:102BE000817B60680078FFF7DDF810B14FF0FF30AF
:102BF000F8BDBDF80000646840BA06B2E08806F08F
:102C0000F3FF0746B4F9080006F0D6FF0446304645
:102C100006F0D2FF214607F0C7F8394606F0CEFE8F
:102C2000C84906F063FE102107F095F906F088FF09
:102C300028600020F8BD002804BF4FF0FF30704727
:102C4000F0B50446006883B0002801BF6068002822
:102C5000A068002804BF03B0F0BDB94D03226B4645
:102C6000686811460078FFF79DF8002852D19DF85A
:102C70000010082000EB111101F00F029DF8011067
:102C80009DF8023000EB111100EB13102368403265
:102C90005B0093FBF2F217B2626801F00F01520081
:102CA000403192FBF1F10EB2A16800F00F00490033
:102CB000403091FBF0F004B2686806226B46007861
:102CC0001146FFF76FF828BBBDF80000BDF80420DF
:102CD00041BABDF8020039440B0A8DF8003040BA01
:102CE00030448DF80110010A52BA8DF802102244C6
:102CF0008DF80300100A8DF804008DF8052068682F
:102D000006226B4600781146FFF7DEF8002804BF64
:102D100003B0F0BD4FF0FF3003B0F0BD8849097A31
:102D2000002904BFFA2101800FD0012908BF4FF408
:102D3000FA7109D0022908BF4FF47A7104D003292F
:102D400014BF00214FF4FA610180002070477C4AD3
:102D5000517A002908BF02210DD0012908BF0421A2
:102D600009D0022908BF082105D0032916BF4FF05A
:102D7000FF30102170470170D17C11B101784900FA
:102D80000170002070476E49C97A072914D2DFE824
:102D900001F0130407090D0F1100BC21018003E0AD
:102DA000622100E02A210180002070471421FAE707
:102DB0000A21F8E70521F6E70021F4E7604991F8D8
:102DC0002420002A1CBF4FF0FF307047C9890180C2
:102DD0000020704700210180481E70474FF0FF30EF
:102DE00070475749097A002908BF57490DD0012972
:102DF00008BF564909D0022908BF554905D0032903
:102E000016BF4FF0FF3053497047016000207047F4
:102E10004B4A517A002908BF4FF4804110D0012954
:102E200008BF41F69C710BD0022908BF4FF48051B6
:102E300006D0032916BF4FF0FF304FF400617047F2
:102E40000180D17C11B101884908018000207047C0
:102E50003B49097C0170002070473949897A002973
:102E600018BF012101700020704738B5044634486E
:102E7000817A41B1016840686B46097C0078022282
:102E8000FEF790FF10B14FF0FF3038BDBDF80000E5
:102E900040BA2080002038BD2DE9F04FDFF8A0A017
:102EA00083B0804600249AF82400DDF830901E4656
:102EB0000F46254600285DD130709AF80A00002898
:102EC0001CBF9AF81020002A54D012F0400F18BFEF
:102ED000022412F0200F18BFA41C12F0100F18BF0C
:102EE000A41C12F0080F18BFA41DDAF800006B46EE
:102EF0000222817ADAF804000078FEF753FF58BB0B
:102F0000BDF8000090FA90FB5C457AD8DAF804002E
:102F10004188BBEB510F22D9DAF8001000786B46DC
:102F2000497C0122FEF73EFFB0B99DF8000010F089
:102F3000100F14D0FFF714FB6FF0010003B00CE08A
:102F40007000002000000C42000003430000834298
:102F500033330342333383410CE0BDE8F08FDAF8BA
:102F600000006B462246C17ADAF804000078FEF7CA
:102F700019FF10B14FF0FF30E0E7BBFBF4F0401E4B
:102F800089F8000000203070002C4AD09AF8100018
:102F9000694610F0080F10D0BDF80000062540BAB1
:102FA0003880BDF8020040BA7880BDF8040040BA0D
:102FB000B880307840F008003070A5421CBF9AF805
:102FC000100010F0400F09D04819AD1C008840BA1D
:102FD000A8F80000307840F040003070A5421CBFD7
:102FE0009AF8100010F0200F09D04819AD1C008885
:102FF00040BAA8F80200307840F020003070A542B6
:1030000000E00EE01CBF9AF8100010F0100F08D07E
:103010004819008840BAA8F80400307840F0100041
:10302000307000208AE72DE9F843164688460546A9
:10303000FE4F97F8240000281CBFB87A002833D030
:1030400038686B460222817A78680078FEF7AAFE1B
:1030500050BBBDF8000044BAA54204D9002030702E
:10306000401EBDE8F88378684188B4EB510F12D94F
:10307000396800786B46497C0122FEF793FE98B9C7
:103080009DF8000010F0100F05D0FFF769FA6FF0FF
:103090000100BDE8F8833868EAB24346C17A78682F
:1030A0000078FEF77FFE18B14FF0FF30BDE8F883DF
:1030B000B4FBF5F0401E30700020BDE8F883DB491A
:1030C00081F82200002070472DE9F04184B00546C8
:1030D0000120DFF858838DF8000000278DF801707B
:1030E000D8F800000C461646817CD8F804006B46E0
:1030F00002220078FEF7E8FE002840F00081C82098
:1031000001F0A2FF8DF80070D8F800006B46012294
:10311000C17BD8F804000078FEF7D6FE002840F006
:10312000EE80D8F800006B4601224179D8F80400FF
:103130000078FEF7C9FE002840F0E180D8F80000D2
:103140006B460122817CD8F804000078FEF7BCFEB3
:10315000002840F0D480D8F800006B460122C17DE1
:10316000D8F804000078FEF7AFFE002840F0C780D2
:10317000D8F800006B4601220179D8F804000078E5
:10318000FEF7A2FE00287DD10C208DF80000D8F8B3
:1031900000006B4601220179D8F804000078FEF7A0
:1031A00093FE00286ED10F2001F04EFFD8F82800C2
:1031B0006B460122407A8DF80000D8F80000817833
:1031C000D8F804000078FEF77FFE00285AD1D8F81E
:1031D00028006B460122007A8DF80000D8F8000024
:1031E0004178D8F804000078FEF76EFE002849D137
:1031F000D8F82800002E807A18BF40F0E0008DF843
:103200000000D8F800006B4601228179D8F804004C
:103210000078FEF759FE002871D1002E1DBFD8F8A6
:103220002800C07A40F0E00018208DF80000D8F89F
:1032300000006B460122C179D8F804000078FEF73F
:1032400043FE00285BD1002E1CBFC82001F0FCFE0D
:1032500040208DF80000D8F800006B46012201796B
:10326000D8F804000078FEF72FFE002847D1782018
:103270008DF80000D8F800006B464179D8F80400BA
:10328000007800E03BE00122FEF71EFEB8BB3220D2
:1032900001F0DAFE8DF80070D8F800006B460122CC
:1032A0004179D8F804000078FEF70EFE38BBD8F854
:1032B00000006B460222817AD8F804000078FEF7FD
:1032C00071FDE0B9BDF80000AF606F602F6040BADB
:1032D0004AF6AB21A76048436760C00C276010F036
:1032E000FF064FF000073DD0D8F800006B460C22D7
:1032F000C17AD8F804000078FEF754FD20B104B07C
:103300004FF0FF30BDE8F081BDF80000236840BAFF
:1033100002B2BDF802001A4440BA01B2BDF804007E
:103320002260626840BA11446160A16800B208443A
:10333000A060BDF806002B6840BA02B2BDF80800D4
:103340001A4440BA01B2BDF80A002A606A6840BA5D
:1033500011446960A96800B20844A860781CC7B22B
:10336000B742C1D328688322C117090441EA10413A
:103370000004002303F077FD3246002303F073FDC1
:10338000286068688322C117090441EA10410004DB
:10339000002303F068FD3246002303F064FD6860FB
:1033A000A8688322C117090441EA104100040023E0
:1033B00003F059FD3246002303F055FDA860206854
:1033C0004FF40062C117090441EA104100040023D0
:1033D00003F049FD3246002303F045FD206060689C
:1033E0004FF40062C117090441EA104100040023B0
:1033F00003F039FD3246002303F035FD6060A0681C
:103400004FF40062C117090441EA1041000400238F
:1034100003F029FD3246002303F025FDA0600028BB
:10342000CCBFA0F5803000F5803001E070000020B6
:10343000A06004B00020BDE8F08138B5FE4C94F8DF
:103440002410814221D0002508B394F825000028DB
:1034500004BF4FF0FF3038BD0020FEF7F7FE00201C
:10346000FEF7FDFFE08CFFF702FA8DF80050606870
:103470006B46012200782321FEF726FD012084F807
:103480002400FEF7E3FEFFF76BF8002038BD0020B4
:10349000FEF7DCFE207C8DF8000060686B460122A0
:1034A00000782321FEF710FD84F82450EBE72DE986
:1034B000F34FE14C91B0884694F82400002808BFEF
:1034C0004FF0000904D00020FFF7B7FF4FF00109CB
:1034D000207A4FF0000B002808BFFA270ED00128F1
:1034E00008BF4FF4FA7709D0022808BF4FF47A7763
:1034F00004D0032814BF5F464FF4FA670BA8FFF708
:1035000026FC0CA8FFF73FFC94F82400002804BF19
:10351000E0890E90C8490024887A0F90087C0D90AD
:10352000002241461198FFF7CFFD00281CBF641C04
:10353000022CF5DB022C18BF002419D0012204A9AB
:1035400001A8FFF7C1FD00281CBF641C022CF5DB9D
:10355000022C0DD0B8480DF1100A0026406807ADC6
:103560006B46007804220D21FEF71CFC60B370E06E
:103570000024B148FF214FF6FF7201724172C172FF
:10358000C28181720174012101733846FFF7DAF9B3
:103590009DF82C00FFF7A6F9BDF83000FFF7D4F82E
:1035A0000E9880B2FFF763F90F98FEF7F8FE0D98BA
:1035B000FFF796F8B9F1000F1CBF0120FFF73DFFA0
:1035C000204613B0BDE8F08F9DF800001C2101EAF1
:1035D000D0029DF803000DF1280BC0F301131A432C
:1035E0008DF828209DF80120C0F3810301EAD20262
:1035F0001A438DF829209DF8022000F0030001EA0B
:10360000D20108438DF82A0000241BF8040000288A
:1036100004BF002045F8240017D08849401E45F813
:10362000241010F0FF000BF804000ED055F8240011
:10363000834906F0EDFA45F824001BF80400401E0B
:1036400010F0FF000BF80400F0D1601CC4B2032C92
:10365000DBD300240DF11C0B012558F824005AF887
:103660002410401A48BF404206F0A6FA6FF00F013E
:1036700006F071FC5BF8241011F0FF4F0BD006F040
:103680009DF94FF07E5106F08FFB20F000416D4810
:10369000814208DD04E06C4901446C48814202D358
:1036A00005FA04F00643641C032CD6DBF0B2079045
:1036B00061480DF1040A00264068DDF844806B463D
:1036C000007803220D21FEF76DFB002818BF0726A6
:1036D00053D19DF80000002400F01F008DF8000079
:1036E0009DF80100EB4600F01F008DF801009DF8E9
:1036F000020000F01F008DF8020058F824005AF86C
:103700002410401A48BF404206F056FA6FF00F01ED
:1037100006F021FC05461BF8040008B3401E4C4A85
:1037200010F0FF000BF804000CD04A49104606F0D8
:103730006FFA02461BF80400401E10F0FF000BF861
:103740000400F2D11146284606F038F94FF07E51B8
:1037500006F02AFB20F000413A4881420ADD06E0EB
:10376000A5F18040A0F19070B0F1D97F02D901207D
:10377000A0400643641C032CBFDB16F0FF0F4FF084
:10378000000408BF01240798002808BF44F0020481
:10379000EFE6002A04BF4FF0FF307047F8B5264D22
:1037A0000C461646A97AE9B1010A8DF80010C0B29C
:1037B0008DF80100011968684289914212D8296880
:1037C00000786B46097E0222FEF77EFB50B928681E
:1037D000E2B23346417D68680078FEF775FB002849
:1037E00008BFF8BD4FF0FF30F8BD002A04BF4FF00E
:1037F000FF307047F8B5104D0C461646A97A59B3FC
:10380000010A8DF80010C0B28DF801000119686836
:103810004289914224D8296800786B46097E0222A9
:10382000FEF752FBC0B92868E2B23346417D6868B2
:103830000078FEF7B7FA10E0700000207B14AE3E6F
:103840001D5A843F295C0F3E666666C19A99D9006D
:103850000000C84154E3853F02E0002808BFF8BDDE
:103860004FF0FF30F8BD2DE9FF4F0646FD4887B009
:103870008B4690F82500002875D1BBF1000F72D05F
:103880000024002E5ED9301B1028C8BF102085B23E
:103890001BEB040767D0F349887A002863D04FEA0E
:1038A000142A8DF814A004F0FF088DF815804868DC
:1038B00008EB05094289914555D80968007805ABA0
:1038C000097E0222FEF700FB00284CD1E548EAB24F
:1038D0003B4601684068497D0078FEF7F5FA00280C
:1038E00041D1E049CDF818D0887A00283BD08DF836
:1038F00014A08DF8158048684289914533D88846D0
:103900000968007805AB097E0222FEF7DDFA50BB9C
:10391000D8F80000EAB2069B417DD8F80400007890
:10392000FEF740FAF8B92A466946384603F09EFC8D
:1039300020B10BB06FF00100BDE8F08F601984B2C8
:10394000B442A0D30998C74C000A8DF8100009981A
:103950008DF81100206804AB0222817E6068007837
:10396000FEF7B2FA20B10BB04FF0FF30BDE8F08F98
:10397000012084F825000A98E0840BB00020BDE8FF
:10398000F08FB84991F824100170002070474FF073
:10399000FF3070474FF0FF3070474FF0FF307047F7
:1039A0002DE9F84FAF4D14000F464FF000084FF0CF
:1039B000010904BF05F11601002000F0B480B0F544
:1039C000FF5F88BFFF2604D8202834BF0126C0F33C
:1039D0004716002F08BF0127282C00F2D580687DEC
:1039E000002837D195F82400002808BF85F82080EA
:1039F00004D00020FFF721FD85F82090297A05F1F9
:103A00001600002908BFFA2137D0012908BF4FF45A
:103A1000FA7132D0022908BF4FF47A712DD00329F0
:103A200014BFA0F800804FF4FA6126D005F1180009
:103A3000FFF78DF905F11A00FFF7A5F995F82410A5
:103A400005F11C00002904BFE9890180A87AA87744
:103A5000297CE9770020FEF7F9FB0020FEF7A6FE9F
:103A60008DF8008028686B460122817868680078AC
:103A7000FEF72AFA00287DD101E00180D6E7402038
:103A80008DF8000028686B460122C17B68680078C9
:103A9000FEF71AFA002848D18DF800608DF8017001
:103AA00028686B460222017A68680078FEF70CFAF3
:103AB00000283AD1052001F0C7FA687A072646EABD
:103AC000C0008DF8000028686B460122C179686843
:103AD0000078FEF7F9F940BB20208DF80000012C9A
:103AE00008BF8DF801800AD0052C98BF8DF8019091
:103AF00005D9142C94BF022003208DF801009DF8F5
:103B000001006B4646EA80108DF801002868022209
:103B1000817C68680078FEF7D7F9002808BF85F82F
:103B2000159002D12AE00A5C2AB3FF20287268723D
:103B3000E8724FF6FF71E981A872287485F80C903D
:103B4000A87FFEF72CFCE88AFEF7FCFE287EFEF735
:103B5000C9FE688BFEF7F8FDA88BFEF788FEE87FAC
:103B6000FEF7BEFD95F8200000281CBF0120FFF7DE
:103B700064FC01E008E004E085F815800020BDE861
:103B8000F88F401C0C28CED34FF0FF30BDE8F88FE3
:103B900030B589B002A905A8FFF789FC03281EBF2C
:103BA000012009B030BD2F4D287A002808BF2E4CC7
:103BB0000AD0012808BF2D4C06D0022808BF2C4C83
:103BC00002D0032808BF2B4C059805F0F5FF2146CD
:103BD00006F01EF805F0B4FF0590069805F0ECFF1E
:103BE000214606F015F805F0ABFF0690079805F0A2
:103BF000E3FF214606F00CF805F0A2FF079005A8A8
:103C000000F022FA687A002808BF4FF480400ED0F6
:103C1000012808BF41F69C7009D0022808BF4FF464
:103C2000805004D0032808BF4FF4006008D1ADF8DD
:103C30000400E87C20B1BDF804004008ADF80400A1
:103C4000BDF8040002994143029103994143039155
:103C500004994843049002A800F05DFA09B00020DE
:103C600030BD0000700000200000034300008342CC
:103C7000333303423333834190F900100029B8BF36
:103C80000420C8BF002018BF704790F90110002918
:103C9000B8BF0520C8BF012018BF704790F90200C7
:103CA000002808BF0720B8BF0620C8BF0220704701
:103CB00000B50246FFF7E0FF0346D01CFFF7DCFF2C
:103CC00043EAC003901DFFF7D7FF43EA801080B29C
:103CD00000BD10B5FEF767F9FEF767FE00281CBFB0
:103CE0000A2010BD7820FEF75AFB10F0FF0F1CBF12
:103CF000012010BD7820FEF7F3FC10F0FF0F1CBF71
:103D0000022010BD6420FEF7B2FD10F0FF0F1CBFB3
:103D1000032010BD00F014F910F0FF0F1CBF0420A9
:103D200010BD854A1046FFF7A7FF0346D01CFFF7DA
:103D3000A3FF43EAC003901DFFF79EFF43EA8010F4
:103D400080B200F005F910F0FF0F1CBF052010BD78
:103D500040F2731000F08BFC10F0FF0F1CBF062028
:103D600010BD642000F044FA10F0FF0F1CBF0720C4
:103D700010BDFFF70DFF00281CBF082010BD01205B
:103D8000FFF75BFB10F0FF0018BF092010BD2DE905
:103D9000F04F8FB08A4604460DA906A8CDE9000170
:103DA00016460CAB02AA0AA908A800F0FBFD0028E1
:103DB0001EBF01200FB0BDE8F08FBDF8180010F451
:103DC000807F02BF02200FB0BDE8F08F029805F09F
:103DD000F3FE6FF01D0106F0BEF80090039805F0A9
:103DE000EBFE6FF01D0106F0B6F88146049805F071
:103DF000E3FE6FF01D0106F0AEF88046059805F071
:103E0000DBFE6FF01D0106F0A6F8074601210098C1
:103E100006F0A1F84146079005F0FAFE83464FF000
:103E20004041484605F0F4FE0546394605F0F0FEEF
:103E3000594605F05BFD05F02DFD04F09DFC4FF0AB
:103E400066323E4B05F04CFA04F0F8FF2060012189
:103E5000404606F080F84146019005F0D9FE044640
:103E60002846494605F0D4FE214605F09DFF4FF057
:103E70007E5105F03BFD05F00DFD04460D4649461B
:103E8000079805F0C5FE83463946019805F0C0FE47
:103E9000594605F02BFD05F0FDFC22462B4604F0AB
:103EA000BBFE4FF06632254B05F01AFA04F0C6FF50
:103EB0003946CAF80000084605F0AAFE0546414604
:103EC000084605F0A5FE04464946084605F0A0FE52
:103ED00000998246084605F09BFE514605F006FD16
:103EE000214605F061FF294605F05EFF05F0D2FC92
:103EF00004460D463946009805F08AFE07464146BD
:103F0000484605F085FE394605F0F0FC012106F033
:103F100022F805F0BFFC22462B4604F07DFE4FF050
:103F20006632064B05F0DCF904F088FF30600FB014
:103F30000020BDE8F08F00009C00002066A64C40E9
:103F4000C8234FF48062FE4940F6F630FFF78BBC81
:103F500070B50446FBA084B000680290FAA002ABE2
:103F600000680390F9A00668F9A0056804F0030052
:103F7000195C8DF80010C4F3C1015A5C8DF8012062
:103F8000C4F381129B5C8DF8023003AB185C8DF892
:103F90000400585C8DF80500985C8DF806006A46B0
:103FA000032140F22640FFF7F4FB002843D101AA89
:103FB000032140F22A40FFF7ECFBE0BBCDE90065AE
:103FC00014F0040F0BD09DF8000040F001008DF8B4
:103FD00000009DF8040040F001008DF8040014F08A
:103FE000200F0BD09DF8010040F001008DF801007A
:103FF0009DF8050040F001008DF8050014F4807F65
:104000000BD09DF8020040F001008DF802009DF8F1
:10401000060040F001008DF806006A4603214FF4C7
:104020008860FFF7B6FB30B901AA032140F23140A6
:10403000FFF7AFFB18B104B04FF0FF3070BDC548BB
:10404000048104B0002070BD38B5C249098901F06F
:10405000030211F0040F50F822C018BFCCF1000C7D
:10406000C1F3C10211F0200F50F8223018BF5B429B
:10407000C1F3811211F4807F50F8222018BF524200
:10408000B5498CFB01C04FEA9C7C4CEA800083FB65
:1040900001C382FB0121920F42EA8105010E8DF8D6
:1040A0000010010C8DF80110010A8DF802104FEA82
:1040B0009C7C8DF803004CEA83046A4604214FF48B
:1040C0007470FFF766FB88B9200E8DF80000200C95
:1040D0008DF80100200A8DF802008DF803406A4631
:1040E00004214FF47570FFF754FB10B14FF0FF300F
:1040F00038BD280E8DF80000280C8DF80100280A24
:104100008DF802008DF803506A4604214FF4767052
:10411000FFF73FFB38BD70B584B0064603A8FEF735
:1041200077FEBDF80C00420CC3038A48018901F0F8
:10413000030011F0040F56F8205018BF6D42C1F370
:10414000C10011F0200F56F8204018BF6442C1F39F
:10415000811011F4807F56F820C018BFCCF1000CFC
:10416000E817A5FB031600FB036005FB0200A4FB98
:104170000356890F41EA8000E11701FB036104FB4C
:104180000211AC0FACFB035644EA81014FEAEC7418
:1041900004FB03630CFB0232AB0F43EA8202030E03
:1041A0008DF80030030C8DF80130030A8DF80230D1
:1041B0008DF80300080E8DF80400080C8DF805003A
:1041C000080A8DF80600100E8DF80800100C8DF806
:1041D0000900100A8DF80A008DF807108DF80B20E1
:1041E0006A460C214FF42570FFF7D3FA04B070BD76
:1041F00010B5044659A186B0D1E900028968CDE91D
:1042000000020291C82C16D8C820B0FBF4F0401E62
:10421000010A8DF810108DF8110004AA022140F255
:104220001620FFF7B6FA30B96A460C2140F6C120D5
:10423000FFF7AFFA18B106B04FF0FF3010BD454898
:10424000848106B0002010BD424989890180002088
:10425000704770B582B0054610F0070F6ED0B1F50B
:10426000C86F6BD8084605F0BFFC3F4905F0A6FBB8
:10427000064601A8FEF76BFD9DF80400022806D053
:10428000042813D0082820D010282DD099E00E2122
:10429000304605F060FE05F06FFC84B233493046CD
:1042A00005F0B6FC05F068FC80B22BE00D2130462D
:1042B00005F051FE05F060FC84B22D49304605F052
:1042C000A7FC05F059FC80B21CE00C21304605F03B
:1042D00042FE05F051FC84B22649304605F098FCB8
:1042E00005F04AFC80B20DE00B21304605F033FEAC
:1042F00005F042FC84B22049304605F089FC05F007
:104300003BFC80B2210A8DF800108DF80140010AB3
:104310008DF802108DF8030015F0010F6C462ED0B9
:10432000224602214FF4EA70FFF733FA30B9A21C9B
:1043300002214FF49270FFF72CFA1FE041E00000D9
:1043400048A000084CCD6C000CC92C0036567600F5
:1043500026466600B815002009E3CA02FEF2ABC487
:10436000AAF1DFDFBBAFDFDF0000484300004046BB
:104370000000C045000040450000C04408BB15F0E7
:10438000020F0DD06A4602214FF4EC70FFF701FADC
:10439000B8B9A21C02214FF49470FFF7FAF980B962
:1043A00015F0040F11D06A4602214FF4EE70FFF7AA
:1043B000F0F930B9A21C02214FF49670FFF7E9F929
:1043C00018B102B04FF0FF3070BD02B0002070BDD8
:1043D00008B500218DF8001010F0010F1CBF30212E
:1043E0008DF8001010F0020F05D09DF8001041F07C
:1043F0000C018DF8001010F0040F05D09DF800009E
:1044000040F003008DF800006A4601214FF4A470CB
:10441000FFF7BFF908BD08B5002808BF012002D08A
:10442000042888BF0420401E8DF800006A46012140
:1044300040F24F10FFF7ADF908BD4CF6CD4108B57D
:104440004843800C010A8DF800108DF801006A467F
:1044500002214FF4EF70FFF79CF908BD4CF6CD41F7
:1044600008B54843800C010A8DF800108DF8010052
:104470006A4602214FF4ED70FFF78BF908BD4FF447
:104480007A7290FBF2F008B54843010E8DF80010E7
:10449000010C8DF80110010A8DF802108DF803004F
:1044A0006A4604214FF4AE70FFF773F908BD4CF66D
:1044B000CD4108B54843800C010A8DF800108DF8F5
:1044C00001006A4602214FF4AD70FFF762F908BDA2
:1044D0004CF6CD4108B54843800C010A8DF8001018
:1044E0008DF801006A4602214FF4AC70FFF751F9D4
:1044F00008BD002804BF4FF0FF30704738B50446B0
:104500006A4604214FF45870FFF76FF900281CBF6A
:104510004FF0FF3038BD00989DF8031000BA20F02E
:10452000FF0008432060002038BD08B5010E8DF85B
:104530000010010C8DF80110010A8DF802108DF8A1
:1045400003006A4604214FF45870FFF722F908BDB2
:10455000002804BF4FF0FF30704738B504466A4664
:1045600004214FF47170FFF740F900281CBF4FF091
:10457000FF3038BD00989DF8031000BA20F0FF000E
:10458000014301EB810080002060002038BDF74925
:1045900008B5A1FB00100009010E8DF80010010CF8
:1045A0008DF80110010A8DF802108DF803006A469B
:1045B00004214FF47170FFF7ECF808BD08B500282E
:1045C00004BF4FF0A33000900BD020208DF80000E6
:1045D00028208DF8010030208DF8020038208DF859
:1045E00003006A46042140F69E20FFF7D2F8FDF74B
:1045F000B7FF08BD08B5002804BF4FF08B3000900E
:104600000BD0C0208DF80000C2208DF80100C4201E
:104610008DF80200C6208DF803006A46042140F69A
:104620009820FFF7B6F8FDF79BFF08BD00B583B0F3
:1046300070B1CFA0D0E9001280680091CDE90120CF
:104640006A4609214FF49760FFF7A3F803B000BD55
:10465000CAA0D0E9001280680091CDE901206A4625
:1046600009214FF49760FFF794F803B000BD2DE9DE
:10467000F04F85B0044602278DF80070CA208DF8EF
:104680000100E3208DF8020009208DF803006A463E
:1046900004216820FFF77DF8A3208DF8000014F0B6
:1046A000400F09D0C0218DF80110C8218DF80210EB
:1046B000C2218DF8031005E08DF801008DF802008D
:1046C0008DF8030014F4C07F4FF0C4084FF0C60902
:1046D00007D08DF80480CC218DF805108DF8069058
:1046E00005E08DF804008DF805008DF806008DF8C2
:1046F00008008DF807008DF809006A460A2140F687
:10470000A720FFF746F814F0030F4FF0200A4FF0F0
:10471000D80614BF8DF800A08DF800606A4601210C
:1047200040F6B620FFF735F814F0200018BF01203E
:10473000FFF77CFF14F4C07F4FF08B001ED014F401
:10474000807F09D0B2218DF800108DF80100B620CD
:104750008DF802009B2009E0B0208DF80000802039
:104760008DF80100B4208DF8020090208DF8030030
:104770006A46042140F6A220FFF70BF814F0010F5F
:104780004FF0300B4FF0000559D0F8208DF80000A5
:104790006A4601214FF40B60FEF7FBFFFA21072068
:1047A000FFF757FD3C203F208DF80C0003AA0121A4
:1047B0004FF4A470FEF7EDFF8DF80C5003AA012111
:1047C00040F24F10FEF7E5FF8DF80C5014208DF8E5
:1047D0000D0003AA02214FF4EF70FEF7DAFF8DF807
:1047E0000C5064208DF80D0003AA02214FF4ED70E7
:1047F000FEF7CFFF8DF80C508E208DF80D00F920BC
:104800008DF80E0090208DF80F0003AA04214FF4BC
:10481000AE70FEF7BEFF8DF80C5008208DF80D002D
:1048200003AA02214FF4AD70FEF7B3FF8DF80C50D0
:104830008DF80D7003AA02214FF4AC7005E08DF8DD
:1048400000606A4601214FF40B60FEF7A2FF14F0EE
:10485000020F1ABFD9208DF800008DF800606A465B
:10486000012140F23D70FEF794FF14F0040F04BFE5
:104870004FF08B30039009D0C0208DF80C00C2207F
:104880008DF80D008DF80E808DF80F9003AA04218D
:1048900040F69820FEF77DFFFDF762FE14F0100F42
:1048A00004BF4FF0A330039009D08DF80CA028204E
:1048B0008DF80D008DF80EB038208DF80F0003AA8A
:1048C000042140F69E20FEF764FFFDF749FE2E4EC0
:1048D00044F008007081FDF743FEB57314F0400FFB
:1048E0001CBF0620B07314F4C07F02D0B07B801DC3
:1048F000B07314F0140F02D0B07B1030B07314F00A
:10490000030F02D0B07B001DB07305B00020BDE8DE
:10491000F08F1D49498901800020704700B51BA117
:1049200087B0D1E9002389680092CDE901311AA14D
:104930000128D1E9002389680392CDE904310DD023
:1049400002281EBF4FF0FF3007B000BD6A460B21A2
:1049500040F68220FEF71DFF07B000BD03AA0B2121
:1049600040F68220FEF715FF07B000BDCDCCCCCCC1
:10497000B8AAB38DB4980D355D000000B8AAAAAAF4
:10498000B088C3C5C7000000B8150020D8B1B9F37E
:104990008BA391B609B4D900DAB1B9F38BA391B660
:1049A000DAB4DA002DE9F04F89B01646DDE912528B
:1049B0000024DFF864910F4680462C809B46A24677
:1049C00099F80E006946FEF72EFB00281EBF4FF037
:1049D000FF3009B0BDE8F08FB9F80A0010F0140FED
:1049E00042D000999DF8032009BA21F0FF0141EA65
:1049F000020CC6F800C001999DF8072009BA21F001
:104A0000FF0141EA0203736002999DF80B2009BA85
:104A100021F0FF011143B160039A9DF80F4012BAD3
:104A200022F0FF0222434FEA2C4C0914F2601B14BF
:104A300012140CFB0CFC494303FB03C302FB0211E1
:104A400019441024A1F17061B1F1007F08D9FDF77C
:104A500087FDA5F800A009B04FF0FF30BDE8F08F4A
:104A6000298841F48071298010F0400F6A460ED0E9
:104A70001119A41D0B885BBA3B804B885BBA7B8005
:104A8000898849BAB980298841F00801298010F441
:104A9000C07F11D01119A41D0B885BBAA8F8003093
:104AA0004B885BBAA8F80230898849BAA8F8041084
:104AB000298841F07001298010F0030F1CD01444A4
:104AC000E078617800F0C00500F03F0011F0010FC0
:104AD00009D0C30800F00700D9F80020411C002AC3
:104AE0001CBF18469047607810F0080F1FBFD9F818
:104AF00004100029A80988475846FEF720F809B095
:104B00000020BDE8F08F044908600020704702498A
:104B10004860002070470000B815002038B501211A
:104B2000042000F0D7FD4FF48050ADF800001020B5
:104B30008DF803000320554C8DF80200694620468D
:104B400000F0BBFBA114204600F033FC38BD2DE97A
:104B5000F0414F4F4FF000080446C7F8B0810520E0
:104B600000F072FA002504F001000126C7F8B061D8
:104B7000A0B14FF4167000F04EFAC7F8B081C8200B
:104B800000F049FA6408691CCDB204F00100082D58
:104B900028BFC7F8B061E9D3BDE8F081C82000F0B4
:104BA0003AFAC7F8B0814FF41670E9E72DE9F04101
:104BB00004464FF47A7094FBF0F100FB1140354944
:104BC00081FB00214A11A2EBE171CDB26FF0180216
:104BD000514300EB8100304981FB00218A10A2EB98
:104BE000E171CEB2494201EB810100EB4100C7B255
:104BF0000D20FFF7ACFF40F2DC5000F025FA0A2C44
:104C00000AD23846FFF7A3FF4FF4FA7000F01CFAFF
:104C1000BDE8F0410C209AE7A4F10A005A280ED210
:104C20003046FFF794FF4FF4FA7000F00DFA0A20B7
:104C3000FFF78DFF4FF4FA7000F006FAE1E7A4F1F8
:104C40006400B0F5617F28BFBDE8F0812846FFF71A
:104C50007EFF4FF4FA7000F0F7F90B20FFF777FFB3
:104C60004FF4FA7000F0F0F9DAE710B50E20FFF714
:104C70006EFF4FF4FA6000F0E7F90E20FFF767FFD0
:104C8000BDE810404FF4FA6000F0DEB900080140C2
:104C9000000021421F85EB516766666630B50D4600
:104CA0000446012189B0C80200F014FD012104204E
:104CB00000F010FD4FF48072ADF81C2018228DF822
:104CC0001F2003228DF81E2007A9794800F0F5FA6D
:104CD000ADF81440ADF810500024764DADF81640F4
:104CE000ADF8124004A9284601F03DF87021ADF856
:104CF00000100121ADF80210ADF80640ADF80840F3
:104D00006946284601F079F80121284601F008FBA0
:104D10000821284601F0F5FB0121284601F0CDFBD2
:104D20000121284601F0F3FA09B030BDF0B50E4676
:104D30000446012185B0084600F0D5FC012104207D
:104D400000F0C8FC01255A4FADF8105028228DF80C
:104D5000132004A9384600F0B0FA0121384600F0CB
:104D60002AFBADF804400024ADF80060ADF8064021
:104D7000ADF802406946A80700F0F5FF4E4801462D
:104D8000048044808580C4800481A80701F097F9DD
:104D90001C208DF80C008DF80D4003208DF80E00BE
:104DA0008DF80F5003A800F092FE01220321900716
:104DB00001F0C1FA0121880701F0A9FA05B0F0BDA0
:104DC00010B53E4C207810F0800F3BD101218807B0
:104DD00001F0E2FC00281CBF207810F0400F0AD040
:104DE0003F2181430CBF40F08000401C207004BF75
:104DF0004FF6FF7060800221480701F0CDFC08B338
:104E0000207810F0400F0DD040F0800020704FF05F
:104E1000804001F0AAFC608000214FF0804001F04A
:104E2000D0FB0FE000202070608001464FF08040F2
:104E300001F086FC2078022140F0400020704807F5
:104E400001F0BFFBBDE8104003214FF0804001F0AE
:104E5000AEBC30B50D46044685B00121082000F0F7
:104E600042FCADF804400020ADF80050144CADF801
:104E70000600ADF802006946204600F074FF0122EA
:104E80001146204601F057FA32218DF80C1001210D
:104E90008DF80D1002228DF80E208DF80F1003A84A
:104EA00000F015FE0121204601F031FA05B030BDB9
:104EB00000080140002C0140C8150020A600002079
:104EC000000C004070B5012184B0084600F002FCDF
:104ED0000121102000F0FEFB0121394800F08AFA80
:104EE0002024ADF80C4048208DF80F0003A9354868
:104EF00000F0E3F90521022000F0B4FA0094002448
:104F00008DF804400C268DF8056001258DF80650BB
:104F1000684601F094FD0A21002000F0A3FAA802DF
:104F20008DF8044000908DF805608DF806506846B5
:104F300001F085FD28208DF808008DF809408DF8D6
:104F40000A508DF80B5002A800F0C1FD17208DF813
:104F500008008DF809408DF80A408DF80B5002A822
:104F600000F0B5FD04B070BD174910B50120087000
:104F700016A001F0AFFF05240E20FFF7E8FD40F674
:104F8000B83000F061F8641EF6D2BDE810404FF46E
:104F9000806001F0BBBD10B50A2000F055F820215B
:104FA000084800F0F2F928B90A49012008700AA05F
:104FB00001F090FFBDE81040202001F0A7BD0000E7
:104FC0000002300000100140000000206578697484
:104FD000210D0A00010000202D2D2D2D2D2D2D2D10
:104FE0002D2D2D0D0A00000010B56FF0040000F00B
:104FF000B8FD224822490068B0FBF1F02149C0B257
:1050000000EB40020870C2EBC0104FF6FF7202EADC
:10501000C000488010BD1B49097848434FF0E0218B
:10502000486100238B61086940F00100086108694C
:1050300010F0010F02D010F4803FF8D0086920F082
:10504000010008618B6170470E49498848434FF061
:10505000E021486100238B61086940F0010008618C
:10506000086910F0010F02D010F4803FF8D00869F1
:1050700020F0010008618B6170470000540000209F
:1050800000127A00AA0000204FF4A06000F018BDC2
:1050900070473F490A8812F0400FFBD03D4AC1B229
:1050A0001180704770B5054686B0012144F20400B6
:1050B00000F010FB364E304600F05CFB7015ADF88A
:1050C000140003248DF8164018208DF8170005A948
:1050D000314800F0F2F825208DF810008DF81140CD
:1050E0008DF8124001208DF8130004A800F0EFFCA9
:1050F0000020ADF80400ADF80600ADF80800ADF8EA
:105100000C000C20ADF80A0000956946304600F00E
:105110007BFB012240F22551304600F0F8FB0121D3
:10512000304600F0EBFB06B070BD10B5184C40F2F5
:105130002551204600F09AFC002808BF10BD2046EB
:1051400000F033FC154AC1B2108810F4004F18BFAC
:1051500010BD10F4804F4FF0000306D00A2908BF9D
:1051600040F4004012D0138010BD0D2908BF40F458
:1051700080400BD0C0F30D0C094C401C80B204F8E9
:105180000C101080C72898BF10BDECE7108010BD30
:10519000003801400438014000080140AE00002002
:1051A000D21500200948804709480047FEE7FEE77E
:1051B000FEE7FEE7FEE7FEE7FEE7FEE7FEE7FEE7C7
:1051C00004480549054A064B70470000050C0008D5
:1051D0003101000800170020001D002000190020E8
:1051E0000019002010B5A0F18041B1F584311DD027
:1051F000B1F5806124D0B1F580612BD0B1F580612B
:1052000032D0B1F5806139D0B1F5806140D0B1F5CF
:10521000806118BF10BD0121080200F06DFABDE8E1
:10522000104000214FF4807000F066BA0121042084
:1052300000F062FA0021BDE81040042000F05CBAE2
:105240000121082000F058FA0021BDE81040082094
:1052500000F052BA0121102000F04EFA0021BDE802
:105260001040102000F048BA0121202000F044FA3C
:105270000021BDE81040202000F03EBA012140206E
:1052800000F03AFA0021BDE81040402000F034BAA6
:105290000121802000F030FA0021BDE8104080207C
:1052A00000F02ABA10B50121084600F025FA0021C5
:1052B000BDE81040012000F01FBA2DE9F00191F87F
:1052C00003C000220CF00F031CF0100F1CBF91F85C
:1052D00002C04CEA030391F800C04FF00F071CF026
:1052E000FF0F4FF0010618BF04681CD00D8806FAA6
:1052F00002FC05EA0C05654511D1950007FA05F891
:1053000024EA080403FA05F52C43CD78282D08BFBC
:10531000C0F814C003D0482D08BFC0F810C0521CFC
:10532000082AE3D304600A88FF2A87BF4468002262
:10533000BDE8F001704702F1080C0D8806FA0CFC7C
:1053400005EA0C05654511D1950007FA05F824EA30
:10535000080403FA05F52C43CD78282D08BFC0F8C2
:1053600014C0CD78482D08BFC0F810C0521C082AC0
:10537000E1D34460BDE8F00170474FF6FF71018052
:10538000022181700421C17070470246002092689A
:105390000A4218BF01207047806880B270470246F9
:1053A0000020D2680A4218BF01207047C06880B24E
:1053B00070470161704741617047002A14BF016165
:1053C00041617047C160704741F480328261816100
:1053D00082618169806970472E4B1A684FF6807C24
:1053E00002EA0C0242EA00100843186070472A499A
:1053F000C861704770B4DFF89CC010F0004F14BF54
:10540000DCF81C20DCF80420C0F303444FF4401304
:1054100033EA00054FEA50534FEA031386B206FA07
:1054200003F316D010F4801F08BF9A4303D003255E
:1054300005FA04F4A24342F07062002918BF1A432F
:1054400010F0004F14BFCCF81C20CCF8042070BC26
:105450007047DCF8044022F0706224F07064CCF8ED
:105460000440EAE78A0721F0030101F1804101F5D8
:105470008031120F0F23D1F808C093402CEA0303A8
:105480008B608B6890401843886070470249C1F870
:10549000DC0070470000014000002042AC48016879
:1054A00041F0010101604168AA4A11404160016870
:1054B00021F4102121F080710160016821F4802124
:1054C0000160416821F4FE0141604FF41F018160D9
:1054D00070479F490A6822F480320A600A6822F401
:1054E00080220A60B0F5803F04BF086840F4803035
:1054F00006D0B0F5802F06BF086840F4A0207047A2
:105500000860704700224109914B012908BF1968C2
:1055100003D002290CBF196A596A00F01F00012349
:1055200003FA00F0084218BF01221046704708B580
:105530000020874A00900020116811F4003F18BF36
:1055400001200099491C0091B1F5A06F01D00028FD
:10555000F1D03120FFF7D6FF002818BF012008BD89
:105560007B4A116821F0F80141EAC00010607047E1
:10557000794908607047764B5A68084322F47C12D8
:10558000104358607047744908667047704A516804
:1055900021F003010843506070476D48406800F0F7
:1055A0000C0070476A4A516821F0F00108435060CE
:1055B0007047674A516821F4E061084350607047C2
:1055C000634A516821F4605141EAC000506070475D
:1055D0005F4A0029517A14BF084321EA0000507243
:1055E00070475D49C1F8D8007047594A516821F4A5
:1055F00040410843506070475549002281F82020FF
:1056000081F82020012803D004280CBF0520704712
:1056100081F8200070475149086070474C490A6A78
:105620001043086270474E4908607047484A10B4FA
:1056300051684C4B11F00C0118BF042901D0082906
:1056400001D0036015E05168536801F470114FF008
:10565000020C13F4803F0CEB914103D0536813F418
:10566000003F03D0404B5943016002E03D4B59439A
:10567000016051680F23DFF8F4C003EA11111CF830
:105680000110036823FA01F141605368072404EA1A
:1056900013231CF8033021FA03F38360536804EAF0
:1056A000D3231CF80330D940C1605268032303EAB6
:1056B0009232ACF104039A5CB1FBF2F1016110BCCF
:1056C0007047234A0029516914BF084321EA0000AA
:1056D000506170471E4A0029916914BF084321EAAE
:1056E0000000906170471A4A0029D16914BF08432D
:1056F00021EA0000D0617047154A0029D16814BF23
:10570000084321EA0000D0607047114A002911695E
:1057100014BF084321EA0000106170471449086073
:1057200070470D49C86470470949C87170470848F7
:10573000416A41F0807141627047054A014600208C
:1057400092680A4218BF0120704701498872704769
:10575000001002400000FFF8000042428004424274
:105760003C04424200127A0000093D00B8000020CB
:105770004004424210B5A0F18041B1F59C3117D0F0
:1057800011F574411FD0B1F5806127D0B1F580616A
:105790002FD0B1F5806118BF10BD01210805FFF7BA
:1057A000B4FFBDE8104000214FF48010FFF7ADBFFB
:1057B00001218803FFF7A0FFBDE8104000214FF44E
:1057C0008040FFF799BF01214804FFF79EFFBDE825
:1057D000104000214FF40030FFF797BF01218804EB
:1057E000FFF793FFBDE8104000214FF48020FFF742
:1057F0008CBF0121C804FFF788FFBDE810400021DD
:105800004FF40020FFF781BF30B50446008A85B011
:105810000D464CF6FF710840E98808432082A089B4
:105820004EF6F3110840A9882A8911436A8910436A
:105830000843A081A08A4FF6FF410840A989084388
:10584000A0826846FFF7F2FEA4F18040B0F59C30DC
:105850000CBF03980298A18911F4004F00EBC0011E
:1058600001EB0010296814BF49008900B0FBF1F07A
:10587000924A6FF0180CA2FB0031490909010B098B
:1058800003FB0CF300EB8300A38913F4004F4FF0EC
:10589000320314BF03EBC00003EB0010A2FB002097
:1058A0004FEA501014BF00F0070000F00F0008434B
:1058B000208105B030BD4FF4165101600021818078
:1058C000C18001810C22428181817047028A4FF29E
:1058D000FF031A400B88B1F802C043EA0C03B1F889
:1058E00004C0C9884CEA0101194311430182704781
:1058F0000021018041808180C18070470029818919
:1059000014BF41F4005121F4005181817047C1F36B
:10591000421301F01F014FF0010C0CFA01F1012BB1
:1059200008BF0C3003D0022B0CBF10301430002AFB
:10593000026814BF114322EA010101607047002A86
:10594000828A14BF114322EA010181827047028AD0
:1059500022F00F020282028A11430182704782897B
:1059600022F400628281828911438181704700297B
:10597000818914BF41F0020121F002018181704749
:10598000028A22F020020282028A114301827047B9
:105990000029018A14BF41F4804121F48041018231
:1059A0007047C1F30801818070478088C0F3080008
:1059B0007047818941F0010181817047028BD2B229
:1059C0000283028B42EA012101837047028B02F4B9
:1059D0007F420283028B1143018370470029818A31
:1059E00014BF41F0200121F020018182704700297D
:1059F000818A14BF41F0100121F0100181827047AB
:105A00000029818A14BF41F0080121F00801818238
:105A100070470029818914BF41F40041C1F30E0190
:105A2000818170470029818A14BF41F4006121F40B
:105A3000006181827047828A22F004028282828A17
:105A40001143818270470029818A14BF41F002010D
:105A500021F00201818270470246002012880A422A
:105A600018BF01207047C9430180704710B401F08E
:105A70001F020124C1F3421304FA02F24FF0000C9A
:105A8000012B04BF83891A4004D0022B0CBF038A68
:105A9000838A1A40090A008804FA01F10840002AA2
:105AA0001CBF00284FF0010C604610BC7047090A6B
:105AB000012202FA01F1C943018070471F85EB51B1
:105AC0002D4940F0FD7040F080600860704710B4D0
:105AD000C27801784FF00F0C01242AB3264A1268CD
